{
  "contractName": "Simplebank",
  "abi": [
    {
      "inputs": [],
      "stateMutability": "nonpayable",
      "type": "constructor"
    },
    {
      "inputs": [],
      "name": "numberOfFunders",
      "outputs": [
        {
          "internalType": "uint256",
          "name": "",
          "type": "uint256"
        }
      ],
      "stateMutability": "view",
      "type": "function",
      "constant": true
    },
    {
      "inputs": [],
      "name": "owner",
      "outputs": [
        {
          "internalType": "address",
          "name": "",
          "type": "address"
        }
      ],
      "stateMutability": "view",
      "type": "function",
      "constant": true
    },
    {
      "inputs": [
        {
          "internalType": "address",
          "name": "newOwner",
          "type": "address"
        }
      ],
      "name": "transferOwnership",
      "outputs": [],
      "stateMutability": "nonpayable",
      "type": "function"
    },
    {
      "inputs": [],
      "name": "addFunds",
      "outputs": [],
      "stateMutability": "payable",
      "type": "function",
      "payable": true
    },
    {
      "inputs": [],
      "name": "getAllFunders",
      "outputs": [
        {
          "internalType": "address[]",
          "name": "",
          "type": "address[]"
        }
      ],
      "stateMutability": "view",
      "type": "function",
      "constant": true
    },
    {
      "inputs": [
        {
          "internalType": "uint256",
          "name": "withdrawAmount",
          "type": "uint256"
        }
      ],
      "name": "withdraw",
      "outputs": [],
      "stateMutability": "nonpayable",
      "type": "function"
    }
  ],
  "bytecode": "0x608060405234801561001057600080fd5b5033600360006101000a81548173ffffffffffffffffffffffffffffffffffffffff021916908373ffffffffffffffffffffffffffffffffffffffff1602179055506109bf806100616000396000f3fe6080604052600436106100555760003560e01c80632e1a7d4d1461005a5780636fbbb55d146100835780638da5cb5b146100ae578063a26759cb146100d9578063dc79a7fc146100e3578063f2fde38b1461010e575b600080fd5b34801561006657600080fd5b50610081600480360381019061007c91906105b9565b610137565b005b34801561008f57600080fd5b50610098610223565b6040516100a591906106d6565b60405180910390f35b3480156100ba57600080fd5b506100c361031c565b6040516100d09190610707565b60405180910390f35b6100e1610342565b005b3480156100ef57600080fd5b506100f86104a4565b6040516101059190610731565b60405180910390f35b34801561011a57600080fd5b5061013560048036038101906101309190610778565b6104aa565b005b670de0b6b3a764000081108061019a5750600360009054906101000a900473ffffffffffffffffffffffffffffffffffffffff1673ffffffffffffffffffffffffffffffffffffffff163373ffffffffffffffffffffffffffffffffffffffff16145b6101d9576040517f08c379a00000000000000000000000000000000000000000000000000000000081526004016101d090610828565b60405180910390fd5b3373ffffffffffffffffffffffffffffffffffffffff166108fc829081150290604051600060405180830381858888f1935050505015801561021f573d6000803e3d6000fd5b5050565b60606000805467ffffffffffffffff81111561024257610241610848565b5b6040519080825280602002602001820160405280156102705781602001602082028036833780820191505090505b50905060005b600054811015610314576002600082815260200190815260200160002060009054906101000a900473ffffffffffffffffffffffffffffffffffffffff168282815181106102c7576102c6610877565b5b602002602001019073ffffffffffffffffffffffffffffffffffffffff16908173ffffffffffffffffffffffffffffffffffffffff1681525050808061030c906108d5565b915050610276565b508091505090565b600360009054906101000a900473ffffffffffffffffffffffffffffffffffffffff1681565b6000339050600160008273ffffffffffffffffffffffffffffffffffffffff1673ffffffffffffffffffffffffffffffffffffffff16815260200190815260200160002060009054906101000a900460ff1661045d5760008060008154809291906103ac906108d5565b91905055905060018060008473ffffffffffffffffffffffffffffffffffffffff1673ffffffffffffffffffffffffffffffffffffffff16815260200190815260200160002060006101000a81548160ff021916908315150217905550816002600083815260200190815260200160002060006101000a81548173ffffffffffffffffffffffffffffffffffffffff021916908373ffffffffffffffffffffffffffffffffffffffff160217905550505b34600460008373ffffffffffffffffffffffffffffffffffffffff1673ffffffffffffffffffffffffffffffffffffffff1681526020019081526020016000208190555050565b60005481565b600360009054906101000a900473ffffffffffffffffffffffffffffffffffffffff1673ffffffffffffffffffffffffffffffffffffffff163373ffffffffffffffffffffffffffffffffffffffff161461053a576040517f08c379a000000000000000000000000000000000000000000000000000000000815260040161053190610969565b60405180910390fd5b80600360006101000a81548173ffffffffffffffffffffffffffffffffffffffff021916908373ffffffffffffffffffffffffffffffffffffffff16021790555050565b600080fd5b6000819050919050565b61059681610583565b81146105a157600080fd5b50565b6000813590506105b38161058d565b92915050565b6000602082840312156105cf576105ce61057e565b5b60006105dd848285016105a4565b91505092915050565b600081519050919050565b600082825260208201905092915050565b6000819050602082019050919050565b600073ffffffffffffffffffffffffffffffffffffffff82169050919050565b600061063d82610612565b9050919050565b61064d81610632565b82525050565b600061065f8383610644565b60208301905092915050565b6000602082019050919050565b6000610683826105e6565b61068d81856105f1565b935061069883610602565b8060005b838110156106c95781516106b08882610653565b97506106bb8361066b565b92505060018101905061069c565b5085935050505092915050565b600060208201905081810360008301526106f08184610678565b905092915050565b61070181610632565b82525050565b600060208201905061071c60008301846106f8565b92915050565b61072b81610583565b82525050565b60006020820190506107466000830184610722565b92915050565b61075581610632565b811461076057600080fd5b50565b6000813590506107728161074c565b92915050565b60006020828403121561078e5761078d61057e565b5b600061079c84828501610763565b91505092915050565b600082825260208201905092915050565b7f596f752063616e2774207769746864726177206d6f7265207468656e2031206560008201527f7468657200000000000000000000000000000000000000000000000000000000602082015250565b60006108126024836107a5565b915061081d826107b6565b604082019050919050565b6000602082019050818103600083015261084181610805565b9050919050565b7f4e487b7100000000000000000000000000000000000000000000000000000000600052604160045260246000fd5b7f4e487b7100000000000000000000000000000000000000000000000000000000600052603260045260246000fd5b7f4e487b7100000000000000000000000000000000000000000000000000000000600052601160045260246000fd5b60006108e082610583565b91507fffffffffffffffffffffffffffffffffffffffffffffffffffffffffffffffff8203610912576109116108a6565b5b600182019050919050565b7f4f6e6c7920746865206f776e65722063616e20646f2074686174000000000000600082015250565b6000610953601a836107a5565b915061095e8261091d565b602082019050919050565b6000602082019050818103600083015261098281610946565b905091905056fea2646970667358221220d2cceb1495c0bdccd1aab3597dac6d077604a69ef17a709a46feed1eca696fab64736f6c63430008110033",
  "immutableReferences": {},
  "source": "// SPDX-License-Identifier: MIT\r\npragma solidity >=0.4.22 <0.9.0;\r\n \r\ncontract Simplebank {\r\n  // address[] public funders;\r\n  // uint[] public tt;\r\n  uint public numberOfFunders;\r\n  mapping(address => bool) private funders;\r\n  mapping(uint => address) private lutFunders;\r\n  address public owner;\r\n  mapping(address => uint) private fEather;\r\n\r\n  constructor(){\r\n    owner = msg.sender;\r\n  }\r\n\r\nmodifier onlyOwner(){\r\n  require(msg.sender == owner, \"Only the owner can do that\");\r\n_;\r\n}\r\n\r\nfunction transferOwnership(address newOwner) external onlyOwner{\r\n  owner = newOwner;\r\n}\r\n\r\n  function addFunds() external payable{\r\n    // funders.push(msg.sender);\r\n    // tt.push(msg.value);\r\n    address funder = msg.sender;\r\n    if(!funders[funder]){\r\n      uint index = numberOfFunders++;\r\n      funders[funder] = true;\r\n      lutFunders[index] = funder;\r\n    }\r\n    fEather[funder] = msg.value;\r\n  }  \r\n  \r\n  function getAllFunders() external view returns(address[] memory) {\r\n    address[] memory _funders = new address[](numberOfFunders);\r\n    for(uint i=0; i<numberOfFunders; i++){\r\n      _funders[i] = lutFunders[i];\r\n    }\r\n    return _funders;\r\n  }\r\n \r\n  // function getAllFEathers() external view returns(address[] memory) {\r\n  //   address[] memory _funders = new address[](numberOfFunders);\r\n  //   for(uint i=0; i<numberOfFunders; i++){\r\n  //     _funders[i] = fEather[i];\r\n  //   }\r\n  //   return _funders;\r\n  // }\r\n \r\nfunction withdraw(uint withdrawAmount) external {\r\n  require(withdrawAmount < 1000000000000000000 || msg.sender == owner, \"You can't withdraw more then 1 ether\");\r\n  payable (msg.sender).transfer(withdrawAmount);\r\n}\r\n\r\n}\r\n\r\n\r\n//const instance = await Simplebank.deployed()\r\n//instance.addFunds({value:\"500000000000000000\", from: accounts[0]})\r\n//instance.addFunds({value:\"500000000000000000\", from: accounts[1]})\r\n//const funds = instance.funds()\r\n//instance.getAllFunders()\r\n//instance.withdraw(\"1000000000000000000\")\r\n//instance.transferOwnership(\"0x38a68CD122250ee5d15b502954c9191631096748\")\r\n//instance.getAllFunds()",
  "sourcePath": "C:\\Users\\elino\\Desktop\\Tech\\web3test\\contracts\\Simplabank.sol",
  "compiler": {
    "name": "solc",
    "version": "0.8.17+commit.8df45f5f.Emscripten.clang"
  },
  "schemaVersion": "3.4.11",
  "updatedAt": "2023-01-26T13:44:30.253Z",
  "networkType": "ethereum",
  "devdoc": {
    "kind": "dev",
    "methods": {},
    "version": 1
  },
  "userdoc": {
    "kind": "user",
    "methods": {},
    "version": 1
  }
}